:060000000A128A110C280F
:10000800FE00030EF1000A08F2000A128A114728BE
:100018000A128A110F2883010A128A1160280130F6
:10002800831603178800890101308316031385009E
:1000380087018801831203138501870188010C1346
:10004800831603130C170B178B170F088F3960389B
:100058008F000F14831203131F083F3940389F0085
:10006800831603131F129F12C330831203139F05B5
:10007800831603139F13831203131F140D30F30009
:10008800F30B44280800831203130C1F4C284D2837
:1000980059281F0CF000700C0F39003A031D552821
:1000A800562858281E0887000C1372088A00710EFB
:1000B8008300FE0E7E0E09000A128A1113200A120E
:1000C8008A11831203139F186A286B2865289F14C6
:0800D80065280A128A110C28A8
:08400000FF3FFF3FFF3FFF3FC0
:04400E00D420FF3F7C
:00000001FF
